:020000040800F2
:10000000001A002009400008A10E0008A30E0008F5
:10001000A70E0008AB0E0008AF0E0008000000009D
:10002000000000000000000000000000B30E000807
:10003000B50E000800000000B70E0008B90E000859
:100040002340000823400008234000082340000804
:1000500023400008234000082340000823400008F4
:1000600023400008234000082340000823400008E4
:1000700023400008234000082340000823400008D4
:1000800023400008234000082340000823400008C4
:100090002340000823400008234000088B14000878
:1000A00023400008234000082340000823400008A4
:1000B000C312000823400008234000082340000822
:1000C0002340000823400008234000082340000884
:1000D00023400008833E0008234000082340000816
:1000E000571400082340000823400008234000085C
:1000F0002340000823400008234000082340000854
:100100002340000823400008234000082340000843
:100110002340000823400008234000082340000833
:100120002340000823400008234000082340000823
:1001300000F002F800F067F80AA090E8000C824492
:100140008344AAF10107DA4501D100F05CF8AFF26F
:10015000090EBAE80F0013F0010F18BFFB1A43F0A5
:1001600001031847D88E0000F88E00000A444FF0B3
:10017000000C10F8013B13F0070408BF10F8014B06
:100180001D1108BF10F8015B641E05D010F8016B4B
:10019000641E01F8016BF9D113F0080F1EBF10F8AF
:1001A000014BAD1C0C1B09D16D1E58BF01F801CBD2
:1001B000FAD505E014F8016B01F8016B6D1EF9D555
:1001C0009142D6D37047000000230024002500266A
:1001D000103A28BF78C1FBD8520728BF30C148BFAA
:1001E0000B607047662908F07E85002070471FB5B8
:1001F00006F00AFA04000020002107F05BFCE06032
:100200001FBD10B510BD06F01BFB1146FFF7EFFF39
:1002100000F05DFD06F039FB03B4FFF7F2FF03BC0D
:1002200003F0D4FD2DE9F84F04468946002120460D
:1002300008F0B2FC26D20021484608F0ADFB13D2EC
:100240002146484608F0D2FA009008F035FA0746F1
:1002500007F05CFA0546FE4AFE4B07F073FC824647
:1002600007F03EFCBDE8F88F2146484608F0BEFA8C
:10027000824608F021FA074607F048FA054607F0DB
:100280002FFCEFE72146484608F0B0FA009008F04E
:1002900013FA054607F03AFA0746ED4AEE4B07F027
:1002A00051FC824607F01CFCDCE72DE9F04F93B0CF
:1002B00004460D461646E068D0E906733A46D0E992
:1002C00008B1584607F0FAFCCDE90E0107F008FC2A
:1002D0008246504608F0F0F9CDE90801A068D0E95F
:1002E00006733A46089807F0D7FECDE90A01A068E0
:1002F000D0E908733A460A9808F002F8CDE90C01F3
:10030000A068D0E904733A460C9807F0D7FCCDE911
:100310000E0107F0E5FB1090109808F0CDF9CDE93B
:1003200006016168D1E904733A46079907F0B4FE03
:10033000CDE90A01504608F0BFF9CDE90401616832
:10034000D1E906733A46059907F0A6FECDE9060104
:100350006168D1E908733A46079907F0D1FFCDE902
:100360000801DDE90A2308F0BDF8CDE90C01616858
:10037000D1E902733A460D9907F0A0FCCDE90E01D0
:1003800007F0AEFB8146484608F096F9CDE9060134
:100390002068D0E902733A46069807F07DFECDE961
:1003A0000A01109808F088F9CDE902012068D0E927
:1003B00004733A46029807F06FFECDE906015046F5
:1003C00008F07AF9CDE900012068D0E906733A46D1
:1003D000009807F061FECDE902012168D1E90873B8
:1003E0003A46039907F08CFFCDE90401DDE90623C5
:1003F00008F078F8CDE90801DDE90A2308F072F881
:10040000CDE90C012068D0E900733A460C9807F05A
:1004100055FCCDE90E0107F063FB11904946119898
:10042000FFF700FF6860686808F046F9074607F0C4
:100430007DFACDE90C01119808F03EF9CDE90A01E9
:10044000DDE90C2307F03AFCCDE90E0107F048FB8B
:10045000286051461098FFF7E5FE7060706808F05C
:100460002BF9CDE90A0107F061FACDE90E011098E8
:1004700008F022F9CDE90C01DDE90E2307F01EFC9E
:10048000074607F02DFB306013B0BDE8F08F2DE973
:10049000FC4704460D4691466E1C1DE054F82600AC
:1004A00000EBC501D1E9007121F0004354F82500AB
:1004B00000EBC50103C921F000413A46CDE9000136
:1004C00007F0AEFD07D254F825A054F8260044F8F2
:1004D000250044F826A0761C4E45DFDBBDE8FC87EE
:1004E0002DE9FF5F05460E461746002453E03246CD
:1004F00021462846FFF7CBFF55F8240000EBC40146
:1005000003C921F00041554A554BCDE9000107F0E0
:1005100087FD00D23EE004F1010938E055F82400DF
:1005200000EBC40003C8CDE9000155F8290000EB39
:10053000C400D0E900BC0B4658466146009A07F05B
:10054000BDFBCDE90201A2461DE055F8240000EBF9
:10055000CA01D1E900B35A46DDE9020107F09CFD6A
:10056000CDE9000155F8290000EBCA00D0E900B33D
:100570005A46009807F0C4FE55F8292002EBCA023B
:1005800003C20AF1010ABA45DFDB09F10109B145ED
:10059000C4DB00BF641C701EA042A8DC781EB04201
:1005A00002DD4FF0010861E0781EB04228D1701ED4
:1005B00055F8200000EBC60151F8080D496821F0FC
:1005C0000041264A264BCDE9000107F063FE02D226
:1005D0004FF000084AE0701E55F8200000EBC601FD
:1005E00003C921F000411D4A1D4BCDE9000107F070
:1005F00051FE02D24FF0FF3838E04FF0010835E0ED
:100600004FF0000800242EE055F8240000EBC7014D
:1006100051F8100D496821F00041104A104BCDE906
:10062000000107F0FDFC1DD255F8240000EBC701C6
:1006300051F8080D496821F00041084A084BCDE9FE
:10064000000107F027FE0DD24FF0FF380DE000004B
:100650006E861BF0F9211940F9210940F168E38801
:10066000B5F8E43E641CB442CEDB00BF404604B0A3
:10067000BDE8F09F0FB5ADF5197DA02170A805F07C
:100680006DFD04200B900A909F98019008F014F8DB
:10069000CDE9020107F04AF9CDE906019E980390E1
:1006A00008F00AF8CDE90401DDE9062307F0F4FCBF
:1006B000719170909F98019007F0FEFFCDE90201C3
:1006C00007F082F9CDE906019E9880F00040039082
:1006D00007F0F2FFCDE90401DDE9062307F0DCFCB9
:1006E00073917290A198019007F0E6FFCDE90201A5
:1006F00007F01CF9CDE90601A098039007F0DCFF94
:10070000CDE90401DDE9062307F0C6FC759174907C
:10071000A198019007F0D0FFCDE9020107F054F94C
:10072000CDE90601A09880F00040039007F0C4FFD7
:10073000CDE90401DDE9062307F0AEFC7791769060
:100740009A98019007F0B8FFCDE9020107F0EEF8A2
:10075000CDE90601999880F00040039007F0ACFFC6
:10076000CDE90401DDE9062307F096FC7991789044
:10077000A398019007F0A0FFCDE9020107F0D6F899
:10078000CDE90601A298039007F096FFCDE9040198
:10079000DDE9062307F080FC7B917A90A398019015
:1007A00007F08AFFCDE9020107F00EF9CDE9060155
:1007B000A29880F00040039007F07EFFCDE904018D
:1007C000DDE9062307F068FC70AAC2E90C01A598D0
:1007D000019007F071FFCDE9020107F0A7F8CDE91C
:1007E0000601A498039007F067FFCDE90401DDE955
:1007F000062307F051FC70AAC2E90E01A5980190EA
:1008000007F05AFFCDE9020107F0DEF8CDE9060155
:10081000A49880F00040039007F04EFFCDE904015A
:10082000DDE9062307F038FC70AAC2E910019C98A4
:10083000019007F041FFCDE9020107F077F8CDE91B
:1008400006019B9880F00040039007F035FFCDE94A
:100850000401DDE9062307F01FFC70AAC2E91201BA
:100860009F98019007F028FFCDE9020107F0ACF84E
:10087000CDE906019E98039007F01EFFCDE9040123
:10088000DDE9062307F008FC859184909F9801908C
:1008900007F012FFCDE9020107F048F8CDE90601A3
:1008A0009E98039007F008FFCDE90401DDE90623D7
:1008B00007F0F2FB70AAC2E91601A198019007F0B7
:1008C000FBFECDE9020107F07FF8CDE90601A09813
:1008D000039007F0F1FECDE90401DDE9062307F0FE
:1008E000DBFB70AAC2E91801A198019007F0E4FEB1
:1008F000CDE9020107F01AF8CDE90601A0980390AE
:1009000007F0DAFECDE90401DDE9062307F0C4FBB8
:1009100070AAC2E91A019A98019007F0CDFECDE9BC
:10092000020107F051F8CDE90601999880F00040E6
:10093000039007F0C1FECDE90401DDE9062307F0CD
:10094000ABFB70AAC2E91C01A398019007F0B4FEAA
:10095000CDE9020107F038F8CDE90601A29803902D
:1009600007F0AAFECDE90401DDE9062307F094FBB8
:100970008F918E90A398019007F09EFECDE9020121
:1009800006F0D4FFCDE90601A298039007F094FE8B
:10099000CDE90401DDE9062307F07EFB8EAAC2E95A
:1009A0000201A598019007F087FECDE9020107F04A
:1009B0000BF8CDE90601A498039007F07DFECDE980
:1009C0000401DDE9062307F067FB8EAAC2E90401F2
:1009D000A598019007F070FECDE9020106F0A6FF90
:1009E000CDE90601A498039007F066FECDE9040165
:1009F000DDE9062307F050FB8EAAC2E906019C98A8
:100A0000019007F059FECDE9020106F0DDFFCDE9C6
:100A100006019B9880F00040039007F04DFECDE961
:100A20000401DDE9062307F037FB8EAAC2E90801BD
:100A3000002009900CE0099800EB800070A901EB00
:100A4000C0010CAA099842F820100998401C09908E
:100A500009986428EFDB0A9A521C0CA80B99FFF73F
:100A60003FFD08900898012803D1F2A005F0A4FAF0
:100A70000AE0089828B90CA8A79AA699FFF715FCD0
:100A800002E0EFA005F098FA0DF51D7D00BD2DE9FF
:100A9000FF4F8FB01E9C1C9807F00EFECDE90A0197
:100AA0001099129808F0AAF8019007F005FE074681
:100AB00006F03CFF05460E464FF08040119907F0C6
:100AC0009FFF80460F9907F09BFF074607F0F4FD54
:100AD00082462A46334607F0DFFACDE904010F9932
:100AE000084607F08DFF06461199084607F088FF73
:100AF0000746314607F00CFE054607F0DDFDCDE95F
:100B00000201DDE9042307F0EDFCCDE9060106F062
:100B1000ABFFCDE90801DDE90A2307F0CFF8CDE905
:100B20000C0106F0DDFF2060109807F0C5FD82463D
:100B300006F0FCFE05460E460F9807F0BDFD074681
:100B40002A46334607F0A8FACDE90A01129807F0C1
:100B5000B3FD054606F0EAFE07468846119807F001
:100B6000ABFD82463A46434607F096FACDE90801C6
:100B7000DDE90A2307F0B6FCCDE90C0106F0B0FF71
:100B80008146109807F098FDCDE9080106F01CFF9A
:100B9000CDE90C010F9807F08FFDCDE90A01DDE9E1
:100BA0000C2307F079FA82468B46129807F084FDF1
:100BB000CDE9080106F008FFCDE90C01119807F016
:100BC0007BFDCDE90A01DDE90C2307F065FA074654
:100BD00052465B4607F086FC054606F081FF0E9004
:100BE0000021484607F0D8FF3ED200210E9807F0BA
:100BF000D3FE1FD21D9807F05FFD07468846494681
:100C00000E9807F0F3FD099007F056FDCDE90A01B3
:100C100006F07CFD3A464346CDE90C0107F062FC44
:100C20000546894A894B06F08DFF824606F058FF3B
:100C3000606038E01D9807F03FFD05460E464946C6
:100C40000E9807F0D3FD0B9007F036FDCDE90C01AF
:100C500006F05CFD07462A46334607F043FC824611
:100C600006F03EFF60601EE01D9807F025FD8246FD
:100C70008B4649460E9807F0B9FD099007F01CFD18
:100C8000CDE90A0106F042FD074652465B4607F0F1
:100C900029FC05466C4A6E4B06F054FFCDE90C0169
:100CA00006F01EFF6060606807F006FD8246664A37
:100CB000674B07F003F805460022664B07F0ECF996
:100CC000074606F00DFF606013B0BDE8F08F8AB0F4
:100CD00003F012F84FF4A06003F03AFF00F071FB4C
:100CE0004FF4E13003F081F800F0D8F900F09AFAFF
:100CF00000F01EFA0821002000F04AFB56E056489A
:100D00005649029003C9CDE9000155480CC8554821
:100D100003C8FFF7BCFE54485049029003C9CDE90F
:100D2000000152480CC8524803C8FFF7B0FE5148B2
:100D30005149029003C9CDE9000150480CC8494807
:100D400003C8FFF7A4FE4E484B49029003C9CDE902
:100D500000014C480CC8464803C8FFF798FE4A48B3
:100D60004A49CDE90810464903C9CDE906013E4983
:100D700003C9CDE904013F4903C9CDE90201364960
:100D800003C9CDE900013A480CC8364803C8FFF74B
:100D900071FC00F0CAFA3E480088012806D100F034
:100DA00010FC01F0E3FD002039490880A7E72DE998
:100DB000F047064689469246002417E000250EE0DB
:100DC00004EBC40000EB041006EB401000EBC50080
:100DD000D0E900733A462FA005F0EEF86D1C55459A
:100DE000EEDB2E490A2005F0B7F9641C4C45E5DB23
:100DF000BDE8F0872DE9F047064689469246002473
:100E000013E000250AE056F8240000EBC500D0E905
:100E100000733A461FA005F0CFF86D1C5545F2DB74
:100E20001E490A2005F098F9641C4C45E9DBBDE831
:100E3000F0870000CEDECAFDB8F6BDE2210A000050
:100E4000CEDEBDE2210A00006E861BF0F9211940BA
:100E5000F921094000806640600000202000002049
:100E600040000020300000206800002050000020DA
:100E700038000020700000202800002048000020DA
:100E800078000020580000201800002010000020EA
:100E90001A010020252D382E336600007001002035
:100EA000704700BFFEE700BFFEE700BFFEE700BFE0
:100EB000FEE7704770477047704700000CB5002090
:100EC000019000906C48006840F480306A490860E6
:100ED00000BF6948006800F4003000900198401C91
:100EE0000190009818B90198B0F5A06FF1D162484F
:100EF000006800F4003010B10120009001E00020F3
:100F000000900098012843D15C48006840F0100030
:100F10005A4908600846006820F003000860084647
:100F2000006840F002000860534840685249486039
:100F30000846406848600846406840F48060486061
:100F40000846406820F47C1048600846406840F439
:100F5000E81048600846006840F08070086000BFF4
:100F60004548006800F000700028F9D04248406809
:100F700020F00300404948600846406840F0020005
:100F8000486000BF3C48406800F00C000828F9D1D8
:100F90000CBD10B5FFF792FF10BD10B536480068C4
:100FA00040F0010034490860084640683449084070
:100FB0003149486008460068324908402E490860B7
:100FC0000846006820F4802008600846406820F445
:100FD000FE0048604FF41F008860FFF7DAFF4FF013
:100FE00000602949086010BD10B5002100200022D2
:100FF000214B5B6803F00C0121B1042906D00829BC
:1010000028D107E0214B224C236027E01F4B204CC6
:10101000236023E0184B5B6803F47010164B5B6889
:1010200003F48032022303EB904022B9194B43436F
:10103000174C23600DE0104B5B6803F4003323B1C1
:10104000144B4343124C236003E0104B4343104CBA
:10105000236003E00D4B0E4C236000BF00BF064B26
:101060005B68C3F303130C4CE15C094B1B68CB407A
:10107000074C236010BD0000001002400020024019
:101080000000FFF8FFFFF6FE08ED00E000127A0016
:10109000F000002000093D00F400002008B5012107
:1010A0001C2003F0EDFA0120ADF8000004208DF8BB
:1010B000030003208DF8020069461A4803F024F863
:1010C0000121184803F0CFF80420ADF800001020EB
:1010D0008DF8030003208DF802006946124803F0E2
:1010E00013F80421104803F0BCF84FF48070ADF8F9
:1010F000000048208DF8030003208DF802006946A7
:10110000084803F001F84FF40050ADF80000482003
:101110008DF8030003208DF802006946034802F0B1
:10112000F3FF08BD0008014000140140000C01401D
:1011300000B587B001214FF4017003F0A1FA00203F
:101140008DF807000620ADF8040001A9334802F02D
:10115000DBFF4FF4004003F0F7F9314803F066FD80
:1011600000208DF80D0005904FF4602004900020C1
:10117000029002208DF8180000208DF80C0002A9C2
:10118000274803F07AFD0121254803F0A2FD2448F9
:1011900003F0C1FD00BF224803F0C2FD0028FAD1D0
:1011A0001F4803F0C7FD00BF1D4803F0C8FD00281D
:1011B000FAD107B000BD10B5044603230122214631
:1011C000174803F0F2FD0121154803F0C2FD00BFEE
:1011D0000221134803F02EFF0028F9D0104803F035
:1011E0004BFE10BD2DE9F04180460C46002500273E
:1011F00005E04046FFF7DFFF0544781CC7B2A74271
:10120000F7DB6800B0FBF4F000F001006900B1FB0F
:10121000F4F100EB5106B0B2BDE8F08100080140E6
:101220000024014000B587B00121084603F035FADB
:101230001C208DF8180002208DF819008DF81A0076
:1012400001208DF81B0006A803F087FC4FF6FF7005
:10125000ADF8100041F61F40ADF80C000020ADF8CD
:101260001200ADF80E0003A94FF0804003F0DAFF42
:101270000020ADF80000ADF802000120ADF8040038
:101280000020ADF80600ADF8080069464FF0804038
:1012900004F0A6FA5021880604F05AFB042108073E
:1012A00004F09EFD8021C80504F0A3FD0122022167
:1012B000480704F02EFB0121880704F00FFB07B05C
:1012C00000BD2DE9F0410221480704F0E1FD4FF097
:1012D000804004F0ADFD2649088008460088D0B162
:1012E0000846008807F044FB804607F0E5F906460B
:1012F00032460B4600201F4906F0E0FC044606F08B
:10130000EFFB1D490860084601681C4807F078FBA0
:101310001B49086004E0002017490860184908606C
:10132000002018490880BDE8F08110B5642002F063
:1013300020FD14480088401C124908800846008897
:10134000012802DD00200E4908600F490C480068A2
:1013500007F022FC05D24FF480710C4802F083FFA5
:1013600004E04FF48071094802F07BFF10BD0000DB
:10137000040100200088C3400801002000007042E2
:101380000C010020100100200000FA440008014078
:1013900001228A40FE4B1A6048B1FD4A143A126895
:1013A00001238B401A43FA4B143B1A6008E0F84AB9
:1013B000143A126801238B409A43F54B143B1A6090
:1013C00070470EB50121084603F05AF90D2101209E
:1013D00002F0B0FF4FF40050019001208DF80A0098
:1013E00000208DF8080008208DF8090001A804F0FD
:1013F00061FD28208DF8000001208DF803000220F7
:101400008DF8010001208DF80200684603F0A5FB6D
:101410000821002002F08EFF4FF48070019001201F
:101420008DF80A0000208DF8080008208DF80900CA
:1014300001A804F03FFD17208DF8000001208DF871
:10144000030002208DF8010000208DF8020068469C
:1014500003F083FB0EBD10B5CE49CF48006807F0FE
:101460009BFB0AD20120CD4908800821FFF790FF9D
:101470000D210020FFF78CFF02E00020C749088003
:101480004FF4005004F08DFD10BD2DE9F04700240D
:10149000A146C2480088012874D1C14800880128AB
:1014A000FAD1C0490888C11700EBD1614C11BD4980
:1014B0000888C11700EBD1614911A0EB41111FFA57
:1014C00081F902210120FFF78DFE824606F094FD8E
:1014D00007464FF06632B44B06F0DEFD054606F0D7
:1014E000FFFAB24901EBC41141F829000221084674
:1014F000FFF778FE824606F07FFD05464FF0663224
:10150000A94B06F0C9FD074606F0EAFAA84901EB27
:10151000C41141F82900A3480088401CA149088053
:1015200008460088B0F5807F45DD0120A14908808C
:10153000A149088000209B4908809849088008211B
:10154000FFF726FF0D210120FFF722FF002415E001
:101550004FF000090DE0954800EBC91050F8240049
:10156000964901EBC91141F8240009F101001FFA65
:1015700080F9B9F1070FEEDD601C84B21F2CE7DDA6
:10158000002416E017E04FF000090DE0884800EB5A
:10159000C91050F824008A4901EBC91141F8240010
:1015A00009F101001FFA80F9B9F1070FEEDD601CA7
:1015B00084B21F2CE7DD4FF4807004F0F2FCBDE82C
:1015C000F08700B5ADF5077D002084902BE000206A
:1015D0007C490860859011E07849859801EBC0113D
:1015E000849851F8201077488391006807F090F8AC
:1015F000744908608598401CC1B285918598072878
:10160000EADD4FF082416F48006807F0EFF80146CD
:101610006D4A849842F8201000206A490860849836
:10162000401CC1B2849184981F28D0DD67480168AE
:10163000674807F0E5F9779007F03EF879917890E0
:1016400006F074F97D917C905F48C16F08467991EE
:1016500007F032F87B917A907D9B7C9A06F01CFD16
:1016600081918090594801685A4807F0C9F97390F0
:1016700007F022F87591749006F058F979917890F6
:101680005148806F759007F017F877917690799BA5
:10169000789A06F001FD7D917C904C4801684E4897
:1016A00007F0AEF96F9007F007F87191709006F0AF
:1016B0003DF9759174904448406F719006F0FCFFBD
:1016C00073917290759B749A06F0E6FC799178900C
:1016D0003E480168414807F093F96B9006F0ECFF33
:1016E0006D916C9006F022F9719170903648006F00
:1016F0006D9006F0E1FF6F916E90719B709A06F00D
:10170000CBFC7591749031480168354807F078F941
:10171000679006F0D1FF6991689006F007F96D9126
:101720006C902948C06E699006F0C6FF6B916A9074
:101730006D9B6C9A06F0B0FC719170902348016823
:10174000284807F05DF9639006F0B6FF6591649054
:1017500006F0ECF8699168901B48816E0846659127
:1017600006F0AAFF67916690699B689A06F094FC60
:101770006D916C90154801681B4807F041F95F9026
:1017800006F09AFF6191609006F0D0F865912DE027
:10179000140401400000FA440C010020160100204E
:1017A000180100201401002066664A3FD001002085
:1017B000D00500201A0100201C010020D0090020C3
:1017C000D00D002028010020D01100202001002091
:1017D0000000F8410000F0410000E8410000E04155
:1017E0000000D8410000D0410000C8416490FE488C
:1017F000406E619006F060FF63916290659B649A11
:1018000006F04AFC69916890F8480168F84807F0CA
:10181000F7F85B9006F050FF5D915C9006F086F85B
:1018200061916090F048006E5D9006F045FF5F9119
:101830005E90619B609A06F02FFC65916490EB4886
:101840000168EC4807F0DCF8579006F035FF599135
:10185000589006F06BF85D915C90E348C16D0846C6
:10186000599106F029FF5B915A905D9B5C9A06F0B6
:1018700013FC61916090DD480168DF4807F0C0F813
:10188000539006F019FF5591549006F04FF8599176
:101890005890D548816D0846559106F00DFF579137
:1018A0005690599B589A06F0F7FB5D915C90CF4893
:1018B0000168D24807F0A4F84F9006F0FDFE519160
:1018C000509006F033F855915490C748406D5190B0
:1018D00006F0F2FE53915290559B549A06F0DCFBB1
:1018E00059915890C1480168C54807F089F84B9054
:1018F00006F0E2FE4D914C9006F018F85191509090
:10190000B948006D4D9006F0D7FE4F914E90519B17
:10191000509A06F0C1FB55915490B4480168B948FB
:1019200007F06EF8479006F0C7FE4991489005F021
:10193000FDFF4D914C90AC48C06C499006F0BCFE48
:101940004B914A904D9B4C9A06F0A6FB51915090BA
:10195000A6480168AC4807F053F8439006F0ACFE87
:101960004591449005F0E2FF499148909E48806C73
:10197000459006F0A1FE47914690499B489A06F093
:101980008BFB4D914C9099480168A04807F038F8BE
:101990003F9006F091FE4191409005F0C7FF4591C0
:1019A00044909148416C0846419106F085FE439170
:1019B0004290459B449A06F06FFB499148908B48B2
:1019C00001684FF0834007F01BF83B9006F074FE6F
:1019D000CDE93C0105F0AAFF419140908248016C9D
:1019E00008463D9106F068FECDE93E01419B409AD4
:1019F00006F052FB459144907C480168844806F00B
:101A0000FFFF379006F058FECDE9380105F08EFF54
:101A1000CDE93C017448C06B399006F04DFECDE92C
:101A20003A01DDE93C2306F037FB419140906F48D5
:101A30000168784806F0E4FF339006F03DFECDE9FA
:101A4000340105F073FFCDE938016748816B084622
:101A5000359106F031FECDE93601DDE9382306F097
:101A60001BFBCDE93C01614801686B4806F0C8FFEB
:101A70002F9006F021FECDE9300105F057FFCDE9AA
:101A800034015948406B319006F016FECDE9320121
:101A9000DDE9342306F000FBCDE938015348016845
:101AA0005E4806F0ADFF2B9006F006FECDE92C0156
:101AB00005F03CFFCDE930014B48006B2D9006F05E
:101AC000FBFDCDE92E01DDE9302306F0E5FACDE995
:101AD000340146480168524806F092FF279006F00C
:101AE000EBFDCDE9280105F021FFCDE92C013E48B1
:101AF000C16A0846299106F0DFFDCDE92A01DDE93A
:101B00002C2306F0C9FACDE9300138480168454870
:101B100006F076FF239006F0CFFDCDE9240105F015
:101B200005FFCDE928013048806A259006F0C4FD04
:101B3000CDE92601DDE9282306F0AEFACDE92C0136
:101B40002A480168384806F05BFF1F9006F0B4FD94
:101B5000CDE9200105F0EAFECDE924012248406AE2
:101B6000219006F0A9FDCDE92201DDE9242306F04C
:101B700093FACDE928011D4801684FF0824006F034
:101B80003FFF1B9006F098FDCDE91C0105F0CEFE4D
:101B9000CDE920011448006A1D9006F08DFDCDE9C5
:101BA0001E01DDE9202306F077FACDE924010F4874
:101BB00001681E4806F024FF179006F07DFDCDE970
:101BC000180105F0B3FECDE91C010748C069199062
:101BD00006F072FDCDE91A01DDE91C2306F05CFA7E
:101BE000CDE92001014823E0D01100202001002090
:101BF0000000C0410000B8410000B0410000A84111
:101C00000000A04100009841000090410000884180
:101C10000000704100006041000050410000404160
:101C20000000304100002041000010410000E04071
:101C30000168FE4806F0E4FE139006F03DFDCDE994
:101C4000140105F073FECDE91801F948806915907B
:101C500006F032FDCDE91601DDE9182306F01CFA85
:101C6000CDE91C01F3480168F34806F0C9FE0F9066
:101C700006F022FDCDE9100105F058FECDE9140172
:101C8000EB484069119006F017FDCDE91201DDE93E
:101C9000142306F001FACDE91801E64801684FF077
:101CA000814006F0ADFE0B9006F006FDCDE90C017B
:101CB00005F03CFECDE91001DD4800690D9006F00D
:101CC000FBFCCDE90E01DDE9102306F0E5F9CDE9D5
:101CD0001401D8480168D94806F092FE079006F032
:101CE000EBFCCDE9080105F021FECDE90C01D0485F
:101CF000C068099006F0E0FCCDE90A01DDE90C239B
:101D000006F0CAF9CDE91001CA4801684FF08040D9
:101D100006F076FE039006F0CFFCCDE9040105F055
:101D200005FECDE90801C2488068059006F0C4FCB4
:101D3000CDE90601DDE9082306F0AEF9CDE90C0195
:101D4000BC48006806F0B8FCCDE9000105F0EEFDE6
:101D5000CDE90401B6484068019006F0ADFCCDE93C
:101D60000201DDE9042306F097F9CDE9080100201E
:101D7000014605F0DBFDCDE90401AD4800680190A6
:101D800006F09AFCCDE90201DDE9042306F084F9AE
:101D9000CDE90601DDE9082305F0D4FECDE90A010D
:101DA000DDE90C2305F0CEFECDE90E01DDE91023BF
:101DB00005F0C8FECDE91201DDE9142305F0C2FEED
:101DC000CDE91601DDE9182305F0BCFECDE91A01C5
:101DD000DDE91C2305F0B6FECDE91E01DDE9202377
:101DE00005F0B0FECDE92201DDE9242305F0AAFECD
:101DF000CDE92601DDE9282305F0A4FECDE92A017D
:101E0000DDE92C2305F09EFECDE92E01DDE930232E
:101E100005F098FECDE93201DDE9342305F092FEAC
:101E2000CDE93601DDE9382305F08CFECDE93A0134
:101E3000DDE93C2305F086FECDE93E01419B409A59
:101E400005F080FE43914290459B449A05F07AFE4E
:101E500047914690499B489A05F074FE4B914A90F1
:101E60004D9B4C9A05F06EFE4F914E90519B509AAF
:101E700005F068FE53915290559B549A05F062FE0E
:101E800057915690599B589A05F05CFE5B915A9079
:101E90005D9B5C9A05F056FE5F915E90619B609A37
:101EA00005F050FE63916290659B649A05F04AFECE
:101EB00067916690699B689A05F044FE6B916A9001
:101EC0006D9B6C9A05F03EFE6F916E90719B709ABF
:101ED00005F038FE73917290759B749A05F032FE8E
:101EE00077917690799B789A05F02CFE7B917A9089
:101EF0007D9B7C9A05F026FE7F917E90819B809A47
:101F000005F020FE8391829005F0EAFD4C490860BF
:101F1000484801684B4806F073FD779006F0CCFB0B
:101F20007991789005F050FD7D917C904048C06F8C
:101F3000799006F0C1FB7B917A907D9B7C9A06F0AC
:101F4000ABF8819180903B4801683F4806F058FD0E
:101F5000739006F0B1FB7591749005F035FD7991A1
:101F600078903348806F759006F0A6FB7791769055
:101F7000799B789A06F090F87D917C902D480168C5
:101F8000324806F03DFD6F9006F096FB719170901F
:101F900005F01AFD759174902548406F719006F018
:101FA0008BFB73917290759B749A06F075F879911A
:101FB000789020480168264806F022FD6B9006F0D4
:101FC0007BFB6D916C9005F0FFFC7191709018484F
:101FD000006F6D9006F070FB6F916E90719B709A20
:101FE00006F05AF87591749012480168194806F085
:101FF00007FD679006F060FB6991689005F0E4FCCE
:102000006D916C900A48C06E699006F055FB6B911B
:102010006A906D9B6C9A06F03FF87191709005483C
:1020200001680D4806F0ECFC639017E00000C0402A
:10203000D0110020200100200000A04000004040FE
:102040003C0100200000F8410000F0410000E841A0
:102050000000E0410000D8410000D04106F02CFB18
:102060006591649005F0B0FC69916890FE48816EBE
:102070000846659106F020FB67916690699B689A17
:1020800006F00AF86D916C90F8480168F84806F07F
:10209000B7FC5F9006F010FB6191609005F094FC36
:1020A00065916490F048416E0846619106F004FB2A
:1020B00063916290659B649A05F0EEFF6991689068
:1020C000EA480168EB4806F09BFC5B9006F0F4FAE6
:1020D0005D915C9005F078FC61916090E248016E42
:1020E00008465D9106F0E8FA5F915E90619B609A08
:1020F00005F0D2FF65916490DC480168DE4806F087
:102100007FFC579006F0D8FA5991589005F05CFC86
:102110005D915C90D448C16D0846599106F0CCFAA7
:102120005B915A905D9B5C9A05F0B6FF619160905F
:10213000CE480168D14806F063FC539006F0BCFA23
:102140005591549005F040FC59915890C648806DC7
:10215000559006F0B1FA57915690599B589A05F050
:102160009BFF5D915C90C1480168C54806F048FC42
:102170004F9006F0A1FA5191509005F025FC559131
:102180005490B948416D0846519106F095FA539123
:102190005290559B549A05F07FFF59915890B3483F
:1021A0000168B84806F02CFC4B9006F085FA4D917A
:1021B0004C9005F009FC51915090AB48016D0846D8
:1021C0004D9106F079FA4F914E90519B509A05F03F
:1021D00063FF55915490A5480168AB4806F010FC88
:1021E000479006F069FA4991489005F0EDFB4D9152
:1021F0004C909D48C06C499006F05EFA4B914A9015
:102200004D9B4C9A05F048FF5191509097480168BA
:102210009E4806F0F5FB439006F04EFA4591449037
:1022200005F0D2FB499148908F48816C0846459152
:1022300006F042FA47914690499B489A05F02CFFD8
:102240004D914C9089480168914806F0D9FB3F9028
:1022500006F032FA4191409005F0B6FB459144906A
:102260008148416C0846419106F026FA439142901C
:10227000459B449A05F010FF499148907B480168BE
:102280004FF0834006F0BCFB3B9006F015FACDE919
:102290003C0105F099FB419140907348016C084660
:1022A0003D9106F009FACDE93E01419B409A05F0C7
:1022B000F3FE459144906D480168764806F0A0FB16
:1022C000379006F0F9F9CDE9380105F07DFBCDE94D
:1022D0003C016548C16B0846399106F0EDF9CDE93E
:1022E0003A01DDE93C2305F0D7FE419140905F487B
:1022F0000168694806F084FB339006F0DDF9CDE90A
:10230000340105F061FBCDE938015748816B08467F
:10231000359106F0D1F9CDE93601DDE9382305F034
:10232000BBFECDE93C01514801685C4806F068FB02
:102330002F9006F0C1F9CDE9300105F045FBCDE95C
:1023400034014948416B0846319106F0B5F9CDE9B1
:102350003201DDE9342305F09FFECDE93801434821
:1023600001684F4806F04CFB2B9006F0A5F9CDE92B
:102370002C0105F029FBCDE930013B48016B0846F3
:102380002D9106F099F9CDE92E01DDE9302305F014
:1023900083FECDE9340135480168424806F030FB40
:1023A000279006F089F9CDE9280105F00DFBCDE96C
:1023B0002C012D48C16A0846299106F07DF9CDE926
:1023C0002A01DDE92C2305F067FECDE9300127481D
:1023D0000168354806F014FB239006F06DF9CDE94D
:1023E000240105F0F1FACDE928011F48816A084669
:1023F000259106F061F9CDE92601DDE9282305F0F4
:102400004BFECDE92C0119480168284806F0F8FA7E
:102410001F9006F051F9CDE9200105F0D5FACDE97C
:1024200024011148416A0846219106F045F9CDE999
:102430002201DDE9242305F02FFECDE928010B4818
:1024400001684FF0824006F0DBFA1B9006F034F989
:10245000CDE91C0105F0B8FACDE920010248016A76
:1024600008461D9124E00000D0110020200100202A
:102470000000C8410000C0410000B8410000B04168
:102480000000A8410000A0410000984100009041D8
:102490000000884100007041000060410000504190
:1024A0000000404100003041000020410000104188
:1024B00006F002F9CDE91E01DDE9202305F0ECFD6F
:1024C000CDE92401FE480168FE4806F099FA17900C
:1024D00006F0F2F8CDE9180105F076FACDE91C0115
:1024E000F948C1690846199106F0E6F8CDE91A01E4
:1024F000DDE91C2305F0D0FDCDE92001F04801689D
:10250000F24806F07DFA139006F0D6F8CDE91401F2
:1025100005F05AFACDE91801EB4881690846159192
:1025200006F0CAF8CDE91601DDE9182305F0B4FD7F
:10253000CDE91C01E2480168E54806F061FA0F9018
:1025400006F0BAF8CDE9100105F03EFACDE9140124
:10255000DD4841690846119106F0AEF8CDE9120157
:10256000DDE9142305F098FDCDE91801D448016890
:102570004FF0814006F044FA0B9006F09DF8CDE94B
:102580000C0105F021FACDE91001CF480169084698
:102590000D9106F091F8CDE90E01DDE9102305F06B
:1025A0007BFDCDE91401C6480168CA4806F028FA47
:1025B000079006F081F8CDE9080105F005FACDE9AC
:1025C0000C01C148C1680846099106F075F8CDE9CB
:1025D0000A01DDE90C2305F05FFDCDE91001B848E3
:1025E00001684FF0804006F00BFA039006F064F8A3
:1025F000CDE9040105F0E8F9CDE90801B2488168A8
:102600000846059106F058F8CDE90601DDE90823F2
:1026100005F042FDCDE90C01A948006806F04CF830
:10262000CDE9000105F0D0F9CDE90401A6484068E4
:10263000019006F041F8CDE90201DDE9042305F03F
:102640002BFDCDE908010020014605F0BDF9CDE9DB
:1026500004019D4801680846019106F02DF8CDE976
:102660000201DDE9042305F017FDCDE90601DDE9EE
:10267000082305F067FACDE90A01DDE90C2305F02E
:1026800061FACDE90E01DDE9102305F05BFACDE931
:102690001201DDE9142305F055FACDE91601DDE953
:1026A000182305F04FFACDE91A01DDE91C2305F0E6
:1026B00049FACDE91E01DDE9202305F043FACDE911
:1026C0002201DDE9242305F03DFACDE92601DDE90B
:1026D000282305F037FACDE92A01DDE92C2305F09E
:1026E00031FACDE92E01DDE9302305F02BFACDE9F1
:1026F0003201DDE9342305F025FACDE93601DDE9C3
:10270000382305F01FFACDE93A01DDE93C2305F055
:1027100019FACDE93E01419B409A05F013FA439125
:102720004290459B449A05F00DFA47914690499B8B
:10273000489A05F007FA4B914A904D9B4C9A05F048
:1027400001FA4F914E90519B509A05F0FBF953912D
:102750005290559B549A05F0F5F957915690599B14
:10276000589A05F0EFF95B915A905D9B5C9A05F0E1
:10277000E9F95F915E90619B609A05F0E3F96391DE
:102780006290659B649A05F0DDF967916690699B9C
:10279000689A05F0D7F96B916A906D9B6C9A05F079
:1027A000D1F96F916E90719B709A05F0CBF973918E
:1027B0007290759B749A05F0C5F977917690799B24
:1027C000789A05F0BFF97B917A907D9B7C9A05F011
:1027D000B9F97F917E90819B809A05F0B3F983913E
:1027E000829005F07DF93C490860374800683B4914
:1027F00008600020859016E03349859851F8201034
:1028000036488391006806F0C7F808D22E498598AB
:1028100051F8200031490860314985980870859841
:10282000401CC1B2859185981F28E5DD2A480168C2
:10283000006806F0E5F87C902A480168006806F018
:10284000DFF87B907C9905F063FF7D9005F034FF05
:102850007F917E9005F008F9234A244B8191809066
:1028600005F01AFC8391829005F03AF9204908603E
:102870001C4801681848006805F0B8FF7B9005F017
:102880001BFF7D917C9004F041FF1A4A1A4B7F9107
:102890007E9005F013FA0022184B8191809005F08C
:1028A000FBFB8391829005F01BF91549086000211C
:1028B0000C48006806F070F935D20021064821E086
:1028C000200100200000E040D01100200000C040A6
:1028D0000000A040000040404001002030010020E6
:1028E000240100203C0100207B14AE47E1BA534094
:1028F000340100206E861BF0F921094000806640FB
:1029000044010020006806F047F807D2FD49FE4860
:10291000006805F0FDFEFD4908600BE0FA4800681C
:10292000FA49086006E0FA49F748006805F0F0FE49
:10293000F6490860F749F548006806F05FF9F34981
:1029400008600021F148006806F026F807D2ED493A
:10295000EE48006805F0DCFEEF49086003E0EB4854
:102960000068ED4908600DF5077D00BD00B5ADF5C7
:10297000077D0020849028E00020859011E0E74941
:10298000859801EBC011849851F82010E448839198
:10299000006805F0BDFEE24908608598401CC1B2A0
:1029A000859185980728EADD4FF08241DC48006870
:1029B00005F01CFFDB4A849942F821000020D84929
:1029C00008608498401CC1B2849184981F28D3DD8C
:1029D000D5480168D54806F013F8779005F06CFEED
:1029E0007991789004F0A2FF7D917C90CD48806F22
:1029F000799005F061FE7B917A907D9B7C9A05F041
:102A00004BFB81918090C8480168C94805F0F8FFE8
:102A1000739005F051FE7591749004F087FF7991E1
:102A20007890C048806F759005F046FE779176905B
:102A3000799B789A05F030FB7D917C90BA480168CB
:102A4000BC4805F0DDFF6F9005F036FE7191709087
:102A500004F06CFF75917490B248406F719005F06E
:102A60002BFE73917290759B749A05F015FB79910A
:102A70007890AD480168B04805F0C2FF6B9005F052
:102A80001BFE6D916C9004F051FF71917090A54800
:102A9000016F08466D9105F00FFE6F916E90719B6E
:102AA000709A05F0F9FA759174909F480168A348EF
:102AB00005F0A6FF679005F0FFFD6991689004F0AE
:102AC00035FF6D916C909748C06E699005F0F4FDEC
:102AD0006B916A906D9B6C9A05F0DEFA7191709023
:102AE00091480168964805F08BFF639005F0E4FD7E
:102AF0006591649004F01AFF699168908948806E2E
:102B0000659005F0D9FD67916690699B689A05F01C
:102B1000C3FA6D916C90844801688A4805F070FF93
:102B20005F9005F0C9FD6191609004F0FFFE659132
:102B300064907C48406E619005F0BEFD63916290A8
:102B4000659B649A05F0A8FA6991689076480168D7
:102B50007D4805F055FF5B9005F0AEFD5D915C9002
:102B600004F0E4FE619160906E48006E5D9005F0A7
:102B7000A3FD5F915E90619B609A05F08DFA65916F
:102B8000649069480168714805F03AFF579005F074
:102B900093FD5991589004F0C9FE5D915C90614895
:102BA000C06D599005F088FD5B915A905D9B5C9AD1
:102BB00005F072FA619160905B480168644805F025
:102BC0001FFF539005F078FD5591549004F0AEFE30
:102BD000599158905348806D559005F06DFD57916F
:102BE0005690599B589A05F057FA5D915C904E4863
:102BF0000168584805F004FF4F9005F05DFD5191C4
:102C0000509004F093FE559154904648406D519079
:102C100005F052FD53915290559B549A05F03CFAA1
:102C200059915890404801684B4805F0E9FE4B9097
:102C300005F042FD4D914C9004F078FE519150907A
:102C40003848006D4D9005F037FD4F914E90519BE7
:102C5000509A05F021FA55915490334801683F4845
:102C600005F0CEFE479005F027FD4991489004F00D
:102C70005DFE4D914C902B48C06C499005F01CFDB9
:102C80004B914A904D9B4C9A05F006FA5191509009
:102C900025480168324805F0B3FE439005F00CFD6D
:102CA0004591449004F042FE499148901D48806C43
:102CB000459005F001FD47914690499B489A05F0E3
:102CC000EBF94D914C9018480168264805F098FEA4
:102CD0003F9005F0F1FC4191409004F027FE4591B2
:102CE00044901048406C419005F0E6FC43914290BE
:102CF000459B449A05F0D0F9499148900A480168EB
:102D000032E000000000B4434401002038010020FC
:102D1000000034430000A04248010020D0050020FC
:102D20004C01002054120020200100200000F84136
:102D30000000F0410000E8410000E0410000D841FF
:102D40000000D0410000C8410000C0410000B8416F
:102D50000000B0410000A8410000A04100009841DF
:102D600000009041000088414FF0834005F048FE8C
:102D70003B9005F0A1FCCDE93C0104F0D7FD419169
:102D80004090FE48006C3D9005F096FCCDE93E0178
:102D9000419B409A05F080F945914490F8480168BC
:102DA000F84805F02DFE379005F086FCCDE9380196
:102DB00004F0BCFDCDE93C01F048C16B08463991F7
:102DC00005F07AFCCDE93A01DDE93C2305F064F930
:102DD00041914090EA480168EB4805F011FE3390BC
:102DE00005F06AFCCDE9340104F0A0FDCDE938011D
:102DF000E248806B359005F05FFCCDE93601DDE9F6
:102E0000382305F049F9CDE93C01DD480168DF4888
:102E100005F0F6FD2F9005F04FFCCDE9300104F0F0
:102E200085FDCDE93401D548406B319005F044FC77
:102E3000CDE93201DDE9342305F02EF9CDE9380181
:102E4000CF480168D24805F0DBFD2B9005F034FC3B
:102E5000CDE92C0104F06AFDCDE93001C748006BD3
:102E60002D9005F029FCCDE92E01DDE9302305F098
:102E700013F9CDE93401C2480168C64805F0C0FD28
:102E8000279005F019FCCDE9280104F04FFDCDE9AC
:102E90002C01BA48C06A299005F00EFCCDE92A0140
:102EA000DDE92C2305F0F8F8CDE93001B4480168DC
:102EB000B94805F0A5FD239005F0FEFBCDE92401FE
:102EC00004F034FDCDE92801AC48806A259005F076
:102ED000F3FBCDE92601DDE9282305F0DDF8CDE996
:102EE0002C01A7480168AD4805F08AFD1F9005F048
:102EF000E3FBCDE9200104F019FDCDE924019F4851
:102F0000416A0846219105F0D7FBCDE92201DDE9B0
:102F1000242305F0C1F8CDE92801994801684FF054
:102F2000824005F06DFD1B9005F0C6FBCDE91C014C
:102F300004F0FCFCCDE920019048006A1D9005F0EA
:102F4000BBFBCDE91E01DDE9202305F0A5F8CDE9A5
:102F500024018B480168924805F052FD179005F056
:102F6000ABFBCDE9180104F0E1FCCDE91C0183487D
:102F7000C069199005F0A0FBCDE91A01DDE91C2319
:102F800005F08AF8CDE920017D480168854805F003
:102F900037FD139005F090FBCDE9140104F0C6FC59
:102FA000CDE9180175488069159005F085FBCDE9DC
:102FB0001601DDE9182305F06FF8CDE91C01704812
:102FC0000168794805F01CFD0F9005F075FBCDE90F
:102FD000100104F0ABFCCDE91401684841690846D2
:102FE000119105F069FBCDE91201DDE9142305F02B
:102FF00053F8CDE91801624801684FF0814005F0AF
:10300000FFFC0B9005F058FBCDE90C0104F08EFCA1
:10301000CDE91001594800690D9005F04DFBCDE94F
:103020000E01DDE9102305F037F8CDE9140154480D
:1030300001685E4805F0E4FC079005F03DFBCDE932
:10304000080104F073FCCDE90C014C48C168084646
:10305000099105F031FBCDE90A01DDE90C2305F00A
:103060001BF8CDE91001464801684FF0804005F09B
:10307000C7FC039005F020FBCDE9040104F056FCE9
:10308000CDE908013D488068059005F015FBCDE9C4
:103090000601DDE9082304F0FFFFCDE90C01384803
:1030A000006805F009FBCDE9000104F03FFCCDE923
:1030B000040132484068019005F0FEFACDE90201B2
:1030C000DDE9042304F0E8FFCDE908010020014612
:1030D00004F02CFCCDE90401284801680846019160
:1030E00005F0EAFACDE90201DDE9042304F0D4FF9A
:1030F000CDE90601DDE9082304F024FDCDE90A014C
:10310000DDE90C2304F01EFDCDE90E01DDE91023FD
:1031100004F018FDCDE91201DDE9142304F012FDDD
:10312000CDE91601DDE9182304F00CFDCDE91A0103
:10313000DDE91C2304F006FDCDE91E01DDE92023B5
:1031400004F000FDCDE92201DDE9242304F0FAFCBE
:10315000CDE92601DDE9282304F0F4FCCDE92A01BC
:10316000DDE92C2304F0EEFCCDE92E01DDE930236E
:1031700004F0E8FCCDE932011AE00000541200200E
:10318000200100200000704100006041000050411B
:10319000000040410000304100002041000010418B
:1031A0000000E0400000C0400000A040000040409F
:1031B000DDE9342304F0C6FCCDE93601DDE938232E
:1031C00004F0C0FCCDE93A01DDE93C2304F0BAFC8F
:1031D000CDE93E01419B409A04F0B4FC43914290FA
:1031E000459B449A04F0AEFC47914690499B489A0F
:1031F00004F0A8FC4B914A904D9B4C9A04F0A2FC21
:103200004F914E90519B509A04F09CFC53915290D8
:10321000559B549A04F096FC57915690599B589A96
:1032200004F090FC5B915A905D9B5C9A04F08AFCE0
:103230005F915E90619B609A04F084FC6391629060
:10324000659B649A04F07EFC67916690699B689A1E
:1032500004F078FC6B916A906D9B6C9A04F072FCA0
:103260006F916E90719B709A04F06CFC73917290E8
:10327000759B749A04F066FC77917690799B789AA6
:1032800004F060FC7B917A907D9B7C9A04F05AFC60
:103290007F917E90819B809A04F054FC8391829070
:1032A00004F01EFCFE490860FE480168FE4805F077
:1032B000A7FB779005F000FA7991789004F084FBF1
:1032C0007D917C90F948C06F799005F0F5F97B917C
:1032D0007A907D9B7C9A04F0DFFE81918090F1488A
:1032E0000168F34805F08CFB739005F0E5F97591E2
:1032F000749004F069FB79917890EC48806F759038
:1033000005F0DAF977917690799B789A04F0C4FE0B
:103310007D917C90E3480168E64805F071FB6F9071
:1033200005F0CAF97191709004F04EFB759174909C
:10333000DE48406F719005F0BFF973917290759BF4
:10334000749A04F0A9FE79917890D6480168DA4819
:1033500005F056FB6B9005F0AFF96D916C9004F0A1
:1033600033FB71917090D148006F6D9005F0A4F916
:103370006F916E90719B709A04F08EFE75917490AF
:10338000C8480168CD4805F03BFB679005F094F90B
:103390006991689004F018FB6D916C90C348C06E01
:1033A000699005F089F96B916A906D9B6C9A04F0B5
:1033B00073FE71917090BB480168C14805F020FB15
:1033C000639005F079F96591649004F0FDFA6991D4
:1033D0006890B648816E0846659105F06DF9679171
:1033E0006690699B689A04F057FE6D916C90AD48A9
:1033F0000168B44805F004FB5F9005F05DF9619148
:10340000609004F0E1FA65916490A848416E084626
:10341000619105F051F963916290659B649A04F0A3
:103420003BFE699168909F480168A74805F0E8FA5B
:103430005B9005F041F95D915C9004F0C5FA6191F3
:1034400060909A48016E08465D9105F035F95F91EC
:103450005E90619B609A04F01FFE659164909148B4
:1034600001689A4805F0CCFA579005F025F9599172
:10347000589004F0A9FA5D915C908C48C06D599009
:1034800005F01AF95B915A905D9B5C9A04F004FE7A
:1034900061916090834801688D4805F0B1FA5390BE
:1034A00005F00AF95591549004F08EFA599158900C
:1034B0007E48816D0846559105F0FEF8579156906B
:1034C000599B589A04F0E8FD5D915C90754801683D
:1034D000804805F095FA4F9005F0EEF85191509024
:1034E00004F072FA559154907048416D084651911C
:1034F00005F0E2F853915290559B549A04F0CCFD9C
:103500005991589067480168734805F079FA4B90D3
:1035100005F0D2F84D914C9004F056FA519150902C
:103520006248006D4D9005F0C7F84F914E90519B49
:10353000509A04F0B1FD559154905A48016867487B
:1035400005F05EFA479005F0B7F84991489004F00D
:103550003BFA4D914C905548C16C0846499105F095
:10356000ABF84B914A904D9B4C9A04F095FD5191CC
:1035700050904C4801685A4805F042FA439005F0D3
:103580009BF84591449004F01FFA499148904748B0
:10359000806C459005F090F847914690499B489A79
:1035A00004F07AFD4D914C903E4801684D4805F07D
:1035B00027FA3F9005F080F84191409004F004FA1A
:1035C000459144903948416C0846419105F074F8A2
:1035D00043914290459B449A04F05EFD4991489086
:1035E000304801684FF0834005F00AFA3B9005F03F
:1035F00063F8CDE93C0104F0E7F9419140902B4894
:10360000016C08463D9105F057F8CDE93E01419B1C
:10361000409A04F041FD45914490224801683248A7
:1036200005F0EEF9379005F047F8CDE9380104F0E0
:10363000CBF9CDE93C011D48C16B0846399105F035
:103640003BF8CDE93A01DDE93C2304F025FD419149
:10365000409014480168254805F0D2F9339005F0F0
:103660002BF8CDE9340104F0AFF9CDE938010F486A
:10367000816B0846359105F01FF8CDE93601DDE98B
:10368000382304F009FDCDE93C01064801681848DB
:1036900005F0B6F92F9005F00FF8CDE9300129E0DB
:1036A0005C010020200100200000F841541200209D
:1036B0000000F0410000E8410000E0410000D84176
:1036C0000000D0410000C8410000C0410000B841E6
:1036D0000000B0410000A8410000A0410000984156
:1036E00000009041000088410000704100006041EE
:1036F0000000504104F068F9CDE93401FE48416B07
:103700000846319104F0D8FFCDE93201DDE93423D8
:1037100004F0C2FCCDE93801F8480168F84805F02A
:103720006FF92B9004F0C8FFCDE92C0104F04CF99F
:10373000CDE93001F048016B08462D9104F0BCFF43
:10374000CDE92E01DDE9302304F0A6FCCDE93401FA
:10375000EA480168EB4805F053F9279004F0ACFF04
:10376000CDE9280104F030F9CDE92C01E248C16A25
:103770000846299104F0A0FFCDE92A01DDE92C23B8
:1037800004F08AFCCDE93001DC480168DE4805F030
:1037900037F9239004F090FFCDE9240104F014F9E7
:1037A000CDE92801D448816A0846259104F084FFB8
:1037B000CDE92601DDE9282304F06EFCCDE92C01DA
:1037C000CE480168D14805F01BF91F9004F074FF42
:1037D000CDE9200104F0F8F8CDE92401C648406A9B
:1037E000219004F069FFCDE92201DDE9242304F0F2
:1037F00053FCCDE92801C14801684FF0824005F033
:10380000FFF81B9004F058FFCDE91C0104F0DCF830
:10381000CDE92001B848006A1D9004F04DFFCDE9C4
:103820001E01DDE9202304F037FCCDE92401B34873
:103830000168B74805F0E4F8179004F03DFFCDE9C2
:10384000180104F0C1F8CDE91C01AB48C06919901A
:1038500004F032FFCDE91A01DDE91C2304F01CFC61
:10386000CDE92001A5480168AA4805F0C9F81390E0
:1038700004F022FFCDE9140104F0A6F8CDE9180107
:103880009D4881690846159104F016FFCDE916019F
:10389000DDE9182304F000FCCDE91C01974801681C
:1038A0009D4805F0ADF80F9004F006FFCDE910013A
:1038B00004F08AF8CDE914018F484069119004F0B2
:1038C000FBFECDE91201DDE9142304F0E5FBCDE9AF
:1038D00018018A4801684FF0814005F091F80B907B
:1038E00004F0EAFECDE90C0104F06EF8CDE9100118
:1038F0008148016908460D9104F0DEFECDE90E0114
:10390000DDE9102304F0C8FBCDE914017B48016810
:10391000824805F075F8079004F0CEFECDE9080165
:1039200004F052F8CDE90C017348C068099004F026
:10393000C3FECDE90A01DDE90C2304F0ADFBCDE9BE
:1039400010016E4801684FF0804005F059F803906F
:1039500004F0B2FECDE9040104F036F8CDE9080127
:1039600065488068059004F0A7FECDE90601DDE911
:10397000082304F091FBCDE90C016048006804F0D5
:103980009BFECDE9000104F01FF8CDE904015A487F
:1039900041680846019104F08FFECDE90201DDE99E
:1039A000042304F079FBCDE908010020014604F06E
:1039B0000BF8CDE90401504801680846019104F074
:1039C0007BFECDE90201DDE9042304F065FBCDE9CE
:1039D0000601DDE9082304F0B5F8CDE90A01DDE9C7
:1039E0000C2304F0AFF8CDE90E01DDE9102304F05B
:1039F000A9F8CDE91201DDE9142304F0A3F8CDE91B
:103A00001601DDE9182304F09DF8CDE91A01DDE97E
:103A10001C2304F097F8CDE91E01DDE9202304F012
:103A200091F8CDE92201DDE9242304F08BF8CDE9FA
:103A30002601DDE9282304F085F8CDE92A01DDE936
:103A40002C2304F07FF8CDE92E01DDE9302304F0CA
:103A500079F8CDE93201DDE9342304F073F8CDE9DA
:103A60003601DDE9382304F06DF8CDE93A01DDE9EE
:103A70003C2304F067F8CDE93E01419B409A04F0F5
:103A800061F843914290459B449A04F05BF847915A
:103A90004690499B489A04F055F84B914A904D9BAB
:103AA0004C9A04F04FF84F914E90519B509A04F06D
:103AB00049F853915290559B549A04F043F857910A
:103AC0005690599B589A04F03DF85B915A905D9B33
:103AD0005C9A04F037F85F915E90619B609A04F005
:103AE00031F863916290659B649A04F02BF86791BA
:103AF0006690699B689A13E0541200202001002010
:103B00000000404100003041000020410000104111
:103B10000000E0400000C0400000A0400000404025
:103B200004F010F86B916A906D9B6C9A04F00AF89F
:103B30006F916E90719B709A04F004F8739172907B
:103B4000759B749A03F0FEFF77917690799B789A33
:103B500003F0F8FF7B917A907D9B7C9A03F0F2FF53
:103B60007F917E90819B809A03F0ECFF83918290FD
:103B700003F0B6FF4F4908604F4800684F4908609E
:103B80000020859016E04C49859851F820104B484C
:103B90008391006804F000FF08D24749859851F8E6
:103BA0002000464908604649859808708598401C61
:103BB000C1B2859185981F28E5DD424801683D48DE
:103BC000006804F013FE7B9004F076FD7D917C90FC
:103BD00003F09CFD3C4A3D4B7F917E9004F06EF8D3
:103BE00000223B4B8191809004F056FA83918290A1
:103BF00003F076FF37490860314800780C280BDA6B
:103C000035493448006804F0C7FE05D80021314822
:103C1000006804F0C1FF0FD929480078182817DB85
:103C20002E492C48006804F0B7FF11D8002129481C
:103C3000006804F0B1FE0BD829492648006804F05A
:103C4000DDFF2849839004F063FD2749086006E002
:103C500024492048006804F05BFD2349086023499B
:103C60002148006804F054FD1F49086020491E489F
:103C7000006804F091FF07D21D491B48006804F05A
:103C8000BDFF1C49086003E0174800681949086037
:103C90000DF5077D00BD30B50B460021991E05E0EE
:103CA00050F821504C1C40F82450491E0029F7DAE6
:103CB000026030BD6001002054120020500100203D
:103CC000240100205C0100206E861BF0F9210940D0
:103CD00000806640640100200000B4420000B4C2CD
:103CE00000003443000087435801002000003E4399
:103CF0000000B4436801002010B56FF0040000F02C
:103D000076FF2E4800682E49B0FBF1F02D4908706F
:103D10000846007800EB4001C1EBC0104FF6FF7180
:103D200001EAC0002849088010BD0146254A1278E2
:103D30004A434FF0E0235A6100229A611A46126901
:103D400042F001021A6100BF4FF0E022106900F05A
:103D500001021AB100F48032002AF5D04FF0E022BF
:103D6000126922F001024FF0E0231A6100229A61E9
:103D700070470146144A12884A434FF0E0235A61C3
:103D800000229A611A46126942F001021A6100BFCC
:103D90004FF0E022106900F001021AB100F4803205
:103DA000002AF5D04FF0E022126922F001024FF014
:103DB000E0231A6100229A6170470000F0000020A1
:103DC00000127A006C0100206E010020014600BF45
:103DD000704700BF834A128802F04002002AF9D0DF
:103DE000C2B2804B1B1D1A80704710B586B00446C6
:103DF000012144F2040000F043FC4FF40070ADF8E0
:103E0000140003208DF8160018208DF8170005A95E
:103E1000754800F079F94FF48060ADF81400042083
:103E20008DF8170005A9704800F06EF925208DF86F
:103E3000000003208DF801008DF8020001208DF8AC
:103E40000300684600F089FE01940020ADF80800E8
:103E5000ADF80A00ADF80C00ADF810000C20ADF87C
:103E60000E0001A95F4800F0B2FC012240F225518A
:103E70005C4800F044FD01215A4800F034FD06B0D2
:103E800010BD10B540F22551564800F01DFE10B38C
:103E9000544800F099FDC4B25448008800F4004032
:103EA000C8B95248008800F4804060B10A2C03D0A1
:103EB00000204E49088020E04C48008840F4004033
:103EC0004A49088019E00D2C06D14848008840F482
:103ED00080404649088010E044480088C0F30D0047
:103EE00043490C5441480088401C4049088008461A
:103EF0000088C72801DD0020088010BD70B53D484E
:103F0000006801280BD13C480078AA2803D1022080
:103F1000384908604DE001203649086049E03548DD
:103F20000068022817D134480078552807D10320AB
:103F300030490860002031490860002639E02E48E9
:103F40000078AA2803D102202A49086031E0012024
:103F5000284908602DE027480068032812D1264828
:103F600000782749254A1268885424480068401C74
:103F7000224908600846006808281AD104201D4913
:103F8000086016E01B480068042812D1002404E0F1
:103F90001B48005D3044C6B2641C082CF8DB164890
:103FA0000078864202D1012016490860012011499B
:103FB000086014480068012813D1002011490860E6
:103FC00000250CE00E48415D064800F0F9FC00BFFA
:103FD0008021044800F062FD0028F9D06D1C082DF6
:103FE000F0DB70BD00380140000801407401002082
:103FF000D8120020840100207601002088010020D2
:1040000077010020800100200948804709480047C7
:10401000FEE7FEE7FEE7FEE7FEE7FEE7FEE7FEE778
:10402000FEE7FEE704480549054A064B70470000D5
:104030009B0F00083101000800140020001A002026
:10404000001600200016002010B50446CC4884421B
:1040500008D10121042000F02DFB0021042000F0F4
:1040600029FB46E0C748844208D10121082000F01E
:1040700021FB0021082000F01DFB3AE0C2488442E9
:1040800008D10121102000F015FB0021102000F0C4
:1040900011FB2EE0BD48844208D10121202000F010
:1040A00009FB0021202000F005FB22E0B8488442F3
:1040B00008D10121402000F0FDFA0021402000F04D
:1040C000F9FA16E0B348844208D10121802000F0BB
:1040D000F1FA0021802000F0EDFA0AE0AE488442B7
:1040E00007D10121801500F0E5FA0021A01500F0AC
:1040F000E1FA10BD10B50121084600F0DBFA0021FD
:10410000012000F0D7FA10BD2DE9F041024600254C
:104110000026002000230024002791F803C00CF0A3
:104120000F0591F803C00CF0100CBCF1000F03D088
:1041300091F802C04CEA050591F800C0BCF1000FEF
:1041400031D0146800202BE04FF0010C0CFA00F382
:10415000B1F800C00CEA03069E4220D183004FF064
:104160000F0C0CFA03F7BC4305FA03FC4CEA0404F9
:1041700091F803C0BCF1280F06D14FF0010C0CFAE6
:1041800000FCC2F814C00AE091F803C0BCF1480F6B
:1041900005D14FF0010C0CFA00FCC2F810C0401C15
:1041A0000828D1D31460B1F800C0BCF1FF0F34DD92
:1041B000546800202EE000F1080C4FF0010808FAC6
:1041C0000CF3B1F800C00CEA03069E4221D1830033
:1041D0004FF00F0C0CFA03F7BC4305FA03FC4CEA52
:1041E000040491F803C0BCF1280F05D100F1080CBC
:1041F00008FA0CF8C2F8148091F803C0BCF1480F1B
:1042000007D100F1080C4FF0010808FA0CF8C2F8C9
:104210001080401C0828CED35460BDE8F0814FF6D2
:10422000FF710180022181700421C1707047024634
:10423000002093680B400BB1012000E00020704784
:104240000146886880B2704702460020D3680B4060
:104250000BB1012000E0002070470146C86880B221
:10426000704701617047416170470AB1016100E028
:1042700041617047C16070474FF480320A438261E8
:104280008161826182698269704702460020434BE6
:1042900018684FF68073184040EA021008433F4BFD
:1042A000186070473E49C8617047F0B50A46002360
:1042B00000240021002500F00046B6F1004F02D195
:1042C000364EF16901E0354E7168C0F3034583B2A3
:1042D00000F44016B6F5401F08D121F070612F4E52
:1042E000766826F070662D4F7E6012E000F480162E
:1042F000B6F5801F06D1032606FA05F4A14341F066
:10430000706106E0460D360103FA06F6B14341F04E
:10431000706122B1460D360103FA06F6314300F012
:104320000046B6F1004F02D11C4EF16101E01B4E78
:104330007160F0BD30B500228B071C0F0F2303FA0C
:1043400004F2164B08338C1053F824309343134C6B
:1043500008348D1044F8253023468C1053F824304F
:104360008C07240F00FA04F423430C4C08348D10FE
:1043700044F8253030BD0A49DC3108607047000040
:1043800000080140000C01400010014000140140F1
:1043900000180140001C01400020014000000140C5
:1043A00000002042DF48006840F00100DD4908605D
:1043B00008464068DC490840DA4948600846006819
:1043C000DA490840D74908600846006820F4802090
:1043D00008600846406820F4FE0048604FF41F0063
:1043E00088607047CF49096821F48031CD4A116057
:1043F0001146096821F480211160B0F5803F03D097
:10440000B0F5802F0ED106E0C649096841F480312D
:10441000C44A116007E0C349096841F4A021C14AB8
:10442000116000E000BF00BF704710B501460022D8
:10443000002300204A11012A02D1BA4C236806E069
:10444000022A02D1B74C236A01E0B64C636A01F03C
:104450001F02012494401C400CB1012000E0002008
:1044600010BD38B5002000900024002500BF312089
:10447000FFF7DBFF05460098401C00900098B0F560
:10448000A06F01D0002DF2D03120FFF7CEFF08B190
:10449000012400E00024204638BD01460020A14A46
:1044A000106820F0F80040EAC10010607047A04991
:1044B00008607047024600209A4B586820F47C1030
:1044C00042EA01031843974B5860704798490866C1
:1044D000704701460020934A506820F003000843CB
:1044E000506070478F48406800F00C0070470146EC
:1044F00000208C4A506820F0F0000843506070475C
:1045000001460020874A506820F4E060084350606C
:10451000704701460020834A506820F4605040EA0A
:10452000C1005060704729B17E4A527A02437D4BE8
:104530005A7204E07B4A527A82437A4B5A7270472D
:104540007B49D8310860704701460020754A5068A1
:1045500020F440400843506070470021714A2032E7
:104560001170704A82F82010012802D004280AD164
:1045700004E001216B4A2032117005E00521694AEF
:104580002032117000E000BF00BF70476949086029
:1045900070476449096A0143624A1162704765497C
:1045A00044390860704730B5002100220024002300
:1045B0005C4D6D6805F00C0121B1042905D0082976
:1045C00023D105E05C4D056022E05B4D05601FE0F6
:1045D000544D6D6805F47012524D6D6805F48034C9
:1045E000022505EB92421CB9544D554305600BE082
:1045F0004C4D6D6805F400351DB1504D55430560B7
:1046000002E04D4D5543056002E04B4D056000BF93
:1046100000BF444D6D6805F0F0010909484D6B5C21
:104620000568DD4045603F4D6D6805F4E061090AAD
:10463000434D6B5C4568DD4085603A4D6D6805F41F
:104640006051C90A3E4D6B5C4568DD40C560354D23
:104650006D6805F44041890B3A4D6B5CC568B5FB4C
:10466000F3F5056130BD29B12E4A526902432D4B45
:104670005A6104E02B4A526982432A4B5A617047BF
:1046800029B1284A92690243264B9A6104E0254ADF
:1046900092698243234B9A61704729B1214AD269BA
:1046A0000243204BDA6104E01E4AD26982431D4B6B
:1046B000DA61704729B11B4AD2680243194BDA60AC
:1046C00004E0184AD2688243164BDA60704729B179
:1046D000144A12690243134B1A6104E0114A126929
:1046E0008243104B1A617047124940390860704785
:1046F0000F49C86470470B49C87170470948406A40
:1047000040F0807007494862704701460020054A22
:1047100092680A400AB1012000E000207047014978
:1047200088727047001002400000FFF8FFFFF6FE9D
:10473000000042428004424200127A0000093D001B
:104740008C0100209C01002010B50446FB488442E7
:1047500009D101218803FFF7ADFF00214FF480400C
:10476000FFF7A8FF32E0F648844209D1012148044E
:10477000FFF7ADFF00214FF40030FFF7A8FF25E061
:10478000F048844209D101218804FFF7A0FF0021ED
:104790004FF48020FFF79BFF18E0EB48844209D1DB
:1047A0000121C804FFF793FF00214FF40020FFF719
:1047B0008EFF0BE0E548844208D101210805FFF790
:1047C00086FF00214FF48010FFF781FF10BD2DE917
:1047D000F04786B005460E460024A24600BFA1461B
:1047E0000027B08900B100BF2F462C8A4CF6FF701D
:1047F0000440F08804432C82AC894EF6F310044048
:10480000B08831890843718908430443AC81AC8A7C
:104810004FF6FF400440B0890443AC8201A8FFF783
:10482000C2FEC648874202D1DDF810A001E0DDF8E3
:104830000CA0A88900F4004040B10AEBCA0000EBCC
:104840000A1031684900B0FBF1F807E00AEBCA0032
:1048500000EB0A1031688900B0FBF1F86420B8FB66
:10486000F0F004012009642101FB1089A88900F4FB
:10487000004040B1322000EBC900B0FBF1F000F085
:104880000700044308E0322000EB09106421B0FB6C
:10489000F1F000F00F0004432C8106B0BDE8F08772
:1048A0004FF41651016000218180C18001810C21EB
:1048B000418100218181704710B502460020108A95
:1048C0004FF2FF0318400B884C8823438C88234306
:1048D000CC8823431843108210BD00210180418001
:1048E0008180C180704721B1828942F40052828167
:1048F00004E082894DF6FF731A4082817047F0B55B
:104900000346002400260025002040F66A17B9421D
:1049100000D100BF1846C1F3421401F01F06012761
:1049200007FA06F5012C01D10C3004E0022C01D16C
:10493000103000E014301AB107682F43076002E01E
:104940000768AF430760F0BD1AB1838A0B438382C7
:1049500002E0838A8B4383827047028A4FF6F073AA
:104960001A400282028A0A430282704782894FF209
:10497000FF731A40828182890A438281704721B184
:10498000828942F00202828104E082894FF6FD733F
:104990001A4082817047028A4FF6DF731A40028202
:1049A000028A0A430282704721B1028A42F480429D
:1049B000028204E0028A4BF6FF731A4002827047BB
:1049C000C1F308028280704701468888C0F308005E
:1049D0007047818941F0010181817047028BD2B219
:1049E0000283028B42EA012202837047028B02F4A7
:1049F0007F420283028B0A430283704721B1828A7D
:104A000042F02002828204E0828A4FF6DF731A406D
:104A10008282704721B1828A42F01002828204E0D1
:104A2000828A4FF6EF731A408282704721B1828AE0
:104A300042F00802828204E0828A4FF6F7731A403D
:104A40008282704721B1828942F40042828103E070
:104A50008289C2F30E028281704721B1828A42F4B8
:104A60000062828204E0828A4FF2FF731A408282DF
:104A70007047828A4FF6FB731A408282828A0A4309
:104A80008282704721B1828A42F00202828204E06F
:104A9000828A4FF6FD731A408282704702460020D8
:104AA000B1F5007F00D100BF13880B400BB101208E
:104AB00000E00020704701F40072B2F5007F00D1E1
:104AC00000BFCA430280704770B50246002400232D
:104AD0000025002040F66A16B14200D100BFC1F3A4
:104AE000421501F01F03012606FA03F3012D02D13E
:104AF0009689334006E0022D02D1168A334001E048
:104B0000968A33400C12012606FA04F416883440C3
:104B100013B10CB1012000E0002070BD10B50022DF
:104B2000002340F66A14A14200D100BF0A120124FA
:104B30009440A3B2DC43048010BD00000038014063
:104B40000044004000480040004C0040005000403D
:104B500031490143314A1160704770B5002100238B
:104B60000F22C47804B32D4C246804F4E064C4F527
:104B7000E064210AC1F10403CA40447804FA03F155
:104B80008478144021430901254C0678A155047806
:104B900004F01F050124AC4005786D11AD0005F14E
:104BA000E025C5F8004109E0047804F01F05012460
:104BB000AC401C4D0678761145F8264070BD1A4A67
:104BC0000A400243154B1B1F1A60704739B1134A44
:104BD000121D12680243114B1B1D1A6006E00F4A9A
:104BE000121D126882430D4B1B1D1A60704704286A
:104BF00008D14FF0E021096941F004014FF0E022B3
:104C0000116107E04FF0E021096921F004014FF044
:104C1000E0221161704700000000FA050CED00E091
:104C200000E400E080E100E080FFFF1F10B50446D3
:104C3000FA48844208D101214015FFF73BFD0021CD
:104C40006015FFF737FD17E0F548844208D10121D0
:104C50000015FFF72FFD00212015FFF72BFD0BE0BE
:104C6000F048844208D10121C803FFF723FD002149
:104C70004FF40040FFF71EFD10BD30B50246002086
:104C800000235068E84C20400D790C6844EA052464
:104C9000204350609068E54C2040D1E902542C43F9
:104CA0004D7944EA450420439060D06A20F47000B6
:104CB0000C7C641EE4B2234340EA0350D06230BD52
:104CC00000210160017141718160C16001210174A5
:104CD000704721B1826842F00102826003E082687D
:104CE00022F001028260704721B1826842F4807232
:104CF000826003E0826822F480728260704710B59F
:104D00000023CBB21AB144681C43446002E04468FB
:104D10009C43446010BD816841F008018160704788
:104D2000014600208A6802F008020AB1012000E072
:104D300000207047816841F004018160704701469E
:104D400000208A6802F004020AB1012000E000207D
:104D5000704721B1826842F4A002826003E0826859
:104D600022F4A00282607047014600208A6802F4A3
:104D700080020AB1012000E00020704710B50A4609
:104D800000210023416821F46041531E41EA433170
:104D9000416010BD21B1426842F40062426003E00C
:104DA000426822F4006242607047F0B504460D4646
:104DB00000200021092D11DDE068A5F10A0606EBAF
:104DC0004607072606FA07F18843A5F10A0606EB0F
:104DD000460603FA06F10843E0600CE0206905EBA3
:104DE0004507072606FA07F1884305EB450603FA4F
:104DF00006F108432061072A0FDA606B561E06EBA6
:104E000086071F2606FA07F18843561E06EB86061C
:104E100005FA06F10843606322E00D2A0FDA206BE1
:104E2000D61F06EB86071F2606FA07F18843D61F12
:104E300006EB860605FA06F10843206310E0E06AF7
:104E4000A2F10D0606EB86071F2606FA07F1884336
:104E5000A2F10D0606EB860605FA06F10843E062AC
:104E6000F0BD21B1826842F48012826003E0826862
:104E700022F48012826070470146C86C80B270478D
:104E800066484C300068704721B1426842F4806245
:104E9000426003E0426822F480624260704721B1C0
:104EA000426842F48052426003E0426822F4805239
:104EB000426070470A460021816821F4E0411143B5
:104EC0008160704721B1826842F40042826003E051
:104ED000826822F400428260704721B1826842F405
:104EE0000212826003E0826822F40212826070473C
:104EF000014600208A6802F400120AB1012000E095
:104F000000207047F0B50446154600200022002618
:104F1000092911DDE068A1F10A0707EB470C072713
:104F200007FA0CF29043A1F10A0707EB470703FACF
:104F300007F21043E0600CE0206901EB410C072709
:104F400007FA0CF2904301EB410703FA07F2104312
:104F50002061A06BC0F30156EF1C06F1010CA7EB1A
:104F60000C0707EB870C1F2707FA0CF29043EF1C86
:104F700006F1010CA7EB0C0707EB870701FA07F214
:104F80001043A063F0BD10B50A4600210023816BD9
:104F900021F44011531E41EA0351816310BD08B54D
:104FA000002300930090009B0B440093009B1A6029
:104FB00008BD08B5024600200090009201F12800CB
:104FC000009B184400900098006880B208BD0A4613
:104FD00000214168164B19401143416070474162FE
:104FE000826270470A460021416821F01F01114387
:104FF0004160704740B109490831096841F4000136
:10500000064A0832116007E004490831096821F4B2
:105010000001024A0832116070470000002401407C
:1050200000280140003C0140FFFEF0FFFDF7F1FFCA
:10503000FFFD3FFF0246002013680B400BB101202B
:1050400000E000207047CA430260704770B5024616
:105050000020002300240B125568CEB205EA060496
:1050600015681D4015B10CB1012000E0002070BD95
:1050700000220A12D34303607047000010B50446B3
:10508000FE48844208D10121C014FFF713FB002120
:10509000E014FFF70FFBC4E0B4F1804F08D1012109
:1050A0000846FFF714FB00210120FFF710FBB8E0D2
:1050B000F348844208D101210220FFF708FB0021B8
:1050C0000220FFF704FBACE0EE48844208D1012146
:1050D0000420FFF7FCFA00210420FFF7F8FAA0E013
:1050E000E948844208D101210820FFF7F0FA0021A5
:1050F0000820FFF7ECFA94E0E448844208D101214B
:105100001020FFF7E4FA00211020FFF7E0FA88E012
:10511000DF48844208D101212020FFF7D8FA00217E
:105120002020FFF7D4FA7CE0DA48844208D101213C
:105130004014FFF7BFFA00216014FFF7BBFA70E0DC
:10514000D548844209D10121C804FFF7B3FA0021F0
:105150004FF40020FFF7AEFA63E0D048844209D153
:1051600001210805FFF7A6FA00214FF48010FFF790
:10517000A1FA56E0CA48844209D101214805FFF747
:1051800099FA00214FF40010FFF794FA49E0C5485E
:10519000844208D101214020FFF799FA00214020E4
:1051A000FFF795FA3DE0C048844208D101218020F4
:1051B000FFF78DFA00218020FFF789FA31E0BB4824
:1051C000844208D101218015FFF781FA0021A01542
:1051D000FFF77DFA25E0B648844209D10121080491
:1051E000FFF768FA00214FF48030FFF763FA18E008
:1051F000B048844209D101214804FFF75BFA00213D
:105200004FF40030FFF756FA0BE0AB48844208D168
:1052100001218804FFF74EFA00214FF48020FFF7A8
:1052200049FA10BD00220288944B98420ED0994B47
:1052300098420BD0B0F1804F08D0914B984205D0E6
:10524000904B984202D0904B984204D14FF68F7306
:105250001A404B881A438D4B984207D08C4B98428A
:1052600004D04FF6FF431A40CB881A4302808B8844
:1052700083850B880385814B98420BD0854B9842E0
:1052800008D08B4B984205D08A4B984202D08A4B6B
:10529000984201D10B7A038601238382704770B54F
:1052A000002400220023058C4FF6FE76354005844D
:1052B000028C8388048B4FF68F752C40B51E2C40D2
:1052C0000D882C43751E2A400D892A434D882A4398
:1052D0006A4DA8420BD06F4DA84208D0744DA84229
:1052E00005D0744DA84202D0734DA84213D14FF699
:1052F000F7752A404D892A434FF6FB752A408D8861
:105300002A434FF6FF652B404FF6FF552B408D8902
:105310002B43CD892B4383800483CD8885860284EB
:1053200070BD70B5002400220023058C4FF6EF7687
:1053300035400584028C8388048B48F6FF752C4029
:105340004FF6FF452C400D884FF6FF7606EA0525FF
:105350002C434FF6DF752A400D8906EA05152A43CE
:105360004D8806EA05152A43444DA84202D0494D0E
:10537000A8421DD14FF67F752A404D894FF6FF7622
:1053800006EA05152A434FF6BF752A408D8806EABE
:1053900005152A434FF6FF352B404FF2FF752B4082
:1053A0008D8906EA85052B43CD8906EA85052B43C1
:1053B00083800483CD880587028470BD70B5002486
:1053C00000220023058C4FF6FF6635400584028CD1
:1053D0008388848B4FF68F752C404FF6FC752C40DC
:1053E0000D882C434FF6FF552A400D894FF6FF7666
:1053F00006EA05252A434D8806EA05252A431F4D5E
:10540000A84202D0234DA8421DD14FF2FF752A4079
:105410004D894FF6FF7606EA05252A434FF6FF35FC
:105420002A408D8806EA05252A434EF6FF752B4053
:105430004DF6FF752B408D8906EA05152B43CD8966
:1054400006EA05152B4383808483CD8885870284F3
:1054500070BD70B5002200230024058C4EF6FF7647
:1054600035400584038C8488828B48F6FF752A407A
:105470004FF6FF452A400D8820E00000002C014037
:105480000004004000080040000C004000100040F4
:105490000014004000340140004C01400050014025
:1054A0000054014000180040001C00400020004053
:1054B0000040014000440140004801404FF6FF76A3
:1054C00006EA05252A434DF6FF752B400D8906EAAD
:1054D00005352B434D8806EA05352B43FA4DA84286
:1054E00002D0FA4DA84208D14BF6FF752C408D89A9
:1054F0004FF6FF7606EA85152C4384808283CD889B
:10550000A0F84050038470BD828B4FF2FF331A40E5
:105510008283828B4FF6FF7303EA01231A4382834F
:105520007047F0B50C461546002200210026078C76
:105530004EF6FF7C07EA0C070784828B018C4FF63E
:10554000FF7707EA043640F6FF473A404FF6FF7709
:1055500007EA05273A434FF6FF7707EA03373A434E
:10556000D94FB8420ED0D94FB8420BD0B0F1804FCE
:1055700008D0D74FB84205D0D64FB84202D0D64F48
:10558000B84206D14DF6FF77394046F4805739438B
:1055900005E047F6FF57394044F48057394382838A
:1055A0000184F0BD828B4FF6F3731A408283828BA5
:1055B0000A4382837047F0B50C461546002200214D
:1055C0000026078C4FF6FF6C07EA0C070784828BD6
:1055D000018C4FF6FF7707EA04264FF60C773A4026
:1055E0004FF6FF7707EA03172F433A43B64FB84207
:1055F0000ED0B64FB8420BD0B0F1804F08D0B44FA8
:10560000B84205D0B34FB84202D0B34FB84206D12A
:105610004FF6FF57394046F48077394305E04FF2A3
:10562000FF57394044F48077394382830184F0BDC9
:10563000028B4FF2FF331A400283028B4FF6FF7347
:1056400003EA01231A4302837047F0B50C4615465E
:10565000002200210026078C4FF6EF7C07EA0C079A
:105660000784028B018C4FF6FF7707EA041640F699
:10567000FF473A404FF6FF7707EA03373A434FF6C2
:10568000FF7707EA05273A438F4FB8420ED08F4F76
:10569000B8420BD0B0F1804F08D08D4FB84205D042
:1056A0008C4FB84202D08C4FB84206D14FF6DF770C
:1056B000394046F01007394305E04FF65F7739402F
:1056C00044F01007394302830184F0BD028B4FF68A
:1056D000F3731A400283028B0A4302837047F0B5CA
:1056E0000C46154600220021068C4FF6FE773E4000
:1056F0000684028B018C4FF60C7632407E1C06EA43
:1057000003162E433243704EB0420ED06F4EB0425D
:105710000BD0B0F1804F08D06D4EB04205D06D4E29
:10572000B04202D06C4EB04206D14FF6FD76314009
:1057300044F00106314305E04FF6F576314044F080
:105740000106314302830184F0BD70B505460C4665
:105750005D4885420ED05D4885420BD0B5F1804F43
:1057600008D05B48854205D05A48854202D05A4845
:10577000854200D100E000BF208850B92389A2886B
:1057800061882846FFF7ABFFE1882846FFF79EFFB8
:1057900025E0208804280AD12389A2886188284628
:1057A000FFF753FFE1882846FFF742FF17E0208804
:1057B00008280AD12389A28861882846FFF7FBFEC2
:1057C000E1882846FFF7EEFE09E02389A288618878
:1057D0002846FFF7A6FEE1882846FFF795FE70BD34
:1057E0002DE9F04105460C4600260127608808B9DE
:1057F000022600E00026A088012801D1022700E04F
:1058000001272088A0B92389A28861882846FFF74C
:1058100066FFE1882846FFF759FF23893A4631465B
:105820002846FFF712FFE1882846FFF701FF13E043
:105830002389A28861882846FFF707FFE188284668
:10584000FFF7F6FE23893A4631462846FFF747FF21
:10585000E1882846FFF73AFFBDE8F0810A884B88C7
:105860001A438B881A43CB881A430B891A434B89F6
:105870001A438B891A43A0F8442070474FF6FF71F2
:10588000818000210180C180418001727047002128
:10589000018041808180C180018141818181C181FC
:1058A0007047002101804180012181800021C18059
:1058B000018170470021018041808180C180018188
:1058C0004181818170470000002C0140003401407B
:1058D0000004004000080040000C004021B1028894
:1058E00042F00102028004E002884FF6FE731A4083
:1058F0000280704731B1B0F8442042F40042A0F871
:10590000442005E0B0F84420C2F30E02A0F8442081
:1059100070471AB183890B43838102E083898B43EB
:10592000838170478182704741EA0203A0F84830C2
:1059300070471AB183890B43838102E083898B43CB
:105940008381704701894FF6F872114001817047D9
:105950000A46002101894FF68F73194011430181D6
:10596000704730B504460D4629462046FFF7F0FF44
:10597000208940F00700208130BD2DE9F041044628
:105980000D4616461F46602D06D13B460122314684
:105990002046FFF75AFE05E03B46012231462046ED
:1059A000FFF79DFE29462046FFF7D2FF208940F0F1
:1059B00007002081BDE8F08130B50C460021018947
:1059C000C9B24FF6FF7505EA032515432543294360
:1059D000018130BD2DE9F04105460E461746984637
:1059E000002443463A4631462846FFF7E5FF2C8916
:1059F0004FF6F870044044F007044FF68F700440EF
:105A000044F070042C81BDE8F081F0B504460D46E9
:105A100016461F463B46324629462046FFF7CCFF36
:105A2000208940F480402081F0BD0185828270474A
:105A30000A46002101884FF68F73194011430180F7
:105A40007047F0B50C4615461E4600210022002383
:105A50000189028B038C4FF6F877394021434FF6CA
:105A6000FC473A4040F201173A434FF6DD773B409E
:105A70004FF6FF7707EA06172F433B430181028366
:105A80000384F0BD0A460021018B4FF68F73194045
:105A90001143018370470A460021018B48F6FF73CA
:105AA00019404FF6FF7303EA02231943018370473D
:105AB0000A460021818B4FF68F7319401143818371
:105AC00070470A460021818B48F6FF7319404FF654
:105AD000FF7303EA022319438183704721B10288CF
